{
  "transactions": [
    {
      "hash": "0xf690b61d346b48b54d5fdb070bbb4f1f183b6d493c758e1d29424176cadf5e8a",
      "transactionType": "CALL",
      "contractName": null,
      "contractAddress": "0xb526abd0bbbca9b8404a84173eb7f42572049671",
      "function": "_mint(string)",
      "arguments": [
        "\"ipfs://bafybeifzvwqczffvwsjwmmtvnqhfj35ovtwe2m24k27stuii7sqiv74x6y/1771.json\""
      ],
      "transaction": {
        "from": "0xa324cbeb48d0dede644ed671d45e78873ae8127e",
        "to": "0xb526abd0bbbca9b8404a84173eb7f42572049671",
        "gas": "0x31c95",
        "value": "0x0",
        "input": "0x4b4938630000000000000000000000000000000000000000000000000000000000000020000000000000000000000000000000000000000000000000000000000000004c697066733a2f2f62616679626569667a767771637a66667677736a776d6d74766e7168666a33356f76747765326d32346b32377374756969377371697637347836792f313737312e6a736f6e0000000000000000000000000000000000000000",
        "nonce": "0x8d",
        "chainId": "0xaa36a7"
      },
      "additionalContracts": [],
      "isFixedGasLimit": false
    }
  ],
  "receipts": [
    {
      "status": "0x1",
      "cumulativeGasUsed": "0x6d6ebd",
      "logs": [
        {
          "address": "0xb526abd0bbbca9b8404a84173eb7f42572049671",
          "topics": [
            "0xddf252ad1be2c89b69c2b068fc378daa952ba7f163c4a11628f55a4df523b3ef",
            "0x0000000000000000000000000000000000000000000000000000000000000000",
            "0x000000000000000000000000a324cbeb48d0dede644ed671d45e78873ae8127e",
            "0x0000000000000000000000000000000000000000000000000000000000000001"
          ],
          "data": "0x",
          "blockHash": "0x2829930fcc09cafc11fc8a7aeb98bc80c716573871ce800348a34ef4c57e122d",
          "blockNumber": "0x5fd986",
          "transactionHash": "0xf690b61d346b48b54d5fdb070bbb4f1f183b6d493c758e1d29424176cadf5e8a",
          "transactionIndex": "0x24",
          "logIndex": "0x6f",
          "removed": false
        }
      ],
      "logsBloom": "0x00004000000000000000000000000000000000000000000000000000000000000000000000000000000000000000000000000000000000000000000000040000000000100000000000000008000000000000000000040000000000000000000000000000020000000000100000000800000000000000000000000010000000000000000000000000000000000000000000000000000000000000000000000000002000000000000000000000000004000000000000000000000000000000000000000002000000000000000001000000000000000000000000000000000060000000000000000000000000000000000000000000000000000000000000000000",
      "type": "0x2",
      "transactionHash": "0xf690b61d346b48b54d5fdb070bbb4f1f183b6d493c758e1d29424176cadf5e8a",
      "transactionIndex": "0x24",
      "blockHash": "0x2829930fcc09cafc11fc8a7aeb98bc80c716573871ce800348a34ef4c57e122d",
      "blockNumber": "0x5fd986",
      "gasUsed": "0x240b7",
      "effectiveGasPrice": "0x5395faaed",
      "from": "0xa324cbeb48d0dede644ed671d45e78873ae8127e",
      "to": "0xb526abd0bbbca9b8404a84173eb7f42572049671",
      "contractAddress": null
    }
  ],
  "libraries": [],
  "pending": [],
  "returns": {},
  "timestamp": 1720594697,
  "chain": 11155111,
  "commit": "842489c"
}