{
  "transactions": [
    {
      "hash": "0xc81d440807bed84dd397491c263b01de7af17becc055a6de7aa362cfe9a6f347",
      "transactionType": "CALL",
      "contractName": null,
      "contractAddress": "0xb526abd0bbbca9b8404a84173eb7f42572049671",
      "function": "_mint(string)",
      "arguments": [
        "\"ipfs://bafybeig37ioir76s7mg5oobetncojcm3c3hxasyd4rvid4jqhy4gkaheg4/?filename=0-PUG.json\""
      ],
      "transaction": {
        "from": "0xa324cbeb48d0dede644ed671d45e78873ae8127e",
        "to": "0xb526abd0bbbca9b8404a84173eb7f42572049671",
        "gas": "0x40f94",
        "value": "0x0",
        "input": "0x4b49386300000000000000000000000000000000000000000000000000000000000000200000000000000000000000000000000000000000000000000000000000000057697066733a2f2f62616679626569673337696f6972373673376d67356f6f6265746e636f6a636d3363336878617379643472766964346a71687934676b61686567342f3f66696c656e616d653d302d5055472e6a736f6e000000000000000000",
        "nonce": "0x8c",
        "chainId": "0xaa36a7"
      },
      "additionalContracts": [],
      "isFixedGasLimit": false
    }
  ],
  "receipts": [
    {
      "status": "0x1",
      "cumulativeGasUsed": "0xfcc6c7",
      "logs": [
        {
          "address": "0xb526abd0bbbca9b8404a84173eb7f42572049671",
          "topics": [
            "0xddf252ad1be2c89b69c2b068fc378daa952ba7f163c4a11628f55a4df523b3ef",
            "0x0000000000000000000000000000000000000000000000000000000000000000",
            "0x000000000000000000000000a324cbeb48d0dede644ed671d45e78873ae8127e",
            "0x0000000000000000000000000000000000000000000000000000000000000000"
          ],
          "data": "0x",
          "blockHash": "0x5e098f033112f0d8098fd7ec9a81cc7d9fa17eec197b37105fca1bb554586724",
          "blockNumber": "0x5fd922",
          "transactionHash": "0xc81d440807bed84dd397491c263b01de7af17becc055a6de7aa362cfe9a6f347",
          "transactionIndex": "0x60",
          "logIndex": "0x8b",
          "removed": false
        }
      ],
      "logsBloom": "0x00004000000000000000000000000000000000000000000000000000000000000000000000000000000000000000000000000000000000000000000000000000000000100000000000000008000000000000000000000000000000000000000000000000020000000000100000000800000000000000000000000010000000000000000000000000000000000000000000000000000000000000000000000000002000000000000000000000000004000000000000000000000000000000000000000002000000000000000001000000000000000000000000000000000020000000000000000000000000000000000000000000000000000000000000000000",
      "type": "0x2",
      "transactionHash": "0xc81d440807bed84dd397491c263b01de7af17becc055a6de7aa362cfe9a6f347",
      "transactionIndex": "0x60",
      "blockHash": "0x5e098f033112f0d8098fd7ec9a81cc7d9fa17eec197b37105fca1bb554586724",
      "blockNumber": "0x5fd922",
      "gasUsed": "0x2c6d3",
      "effectiveGasPrice": "0x1d6f0dabc",
      "from": "0xa324cbeb48d0dede644ed671d45e78873ae8127e",
      "to": "0xb526abd0bbbca9b8404a84173eb7f42572049671",
      "contractAddress": null
    }
  ],
  "libraries": [],
  "pending": [],
  "returns": {},
  "timestamp": 1720593375,
  "chain": 11155111,
  "commit": "842489c"
}